:1000000005308A00632D0000FF00030E8301A1006C
:100010000A08A0008A010408A2007708A300780853
:10002000A4007908A5007A08A60003170D08031399
:10003000A70003170F080313A80003170C080313E6
:10004000A90003170E080313AA00831383128B1E43
:100050002B280B194C28220884002308F7002408B9
:10006000F8002508F9002608FA00270803178D0074
:100070000313280803178F000313290803178C00A4
:1000800003132A0803178E00031320088A00210E89
:100090008300FF0E7F0E09008A110A12CC280A1075
:1000A0008A100A11820728340F34013406345E089E
:1000B0000319C728E60062080319C728E6070318D2
:1000C00068287F30E602031CC7280319C7286C285C
:1000D0008130E6070318C7286608F700F801F90120
:1000E000FA015F08EA00EA176008E9006108E80021
:1000F0001830E600E701681C95286508FA07031C1C
:100100008728F90A031D8728F80A0319E7176408E6
:10011000F907031C8E28F80A0319E7176308E000A3
:10012000E0176008F8070318E717E70DF80CF90C5B
:10013000FA0CEA0CE90CE80C0310E60B7A28013003
:10014000F7070318C728F81BAC28EA0DFA0DF90DBC
:10015000F80DF7030319C728EA1FBD28FA0A031D83
:10016000BD28F90A031DBD28F80A031DBD28F80C97
:10017000F90CFA0CF70A0319C7285F08E7006308AF
:10018000E706E71FC528F817CB28F813CB28F70197
:10019000F801F901FA0108004808E1004708E00009
:1001A0004608DF004508DE00BC30E5007430E4009E
:1001B0001330E3007930E2005720DF012C08DE0025
:1001C0008E30F7005F08F8005E08F900FA01F808C1
:1001D000031DF4287908F800F9010830F702F8083F
:1001E000031DF428F701FC280310F81BFB28F90D68
:1001F000F80DF703F428F8137A08E1007908E00015
:100200007808DF007708DE004808E5004708E400CA
:100210004608E3004508E2005F08E6006308E606DA
:10022000E61F172903110310DF1B03144A295F0877
:10023000E6006208E7005E08E70203192529E61FC9
:100240004A290308013A83004A296308E7005F0846
:10025000E70203193129E61F4A290308013A8300FE
:100260004A296408E7006008E70203193D29E61FF0
:100270004A290308013A83004A296508E700610812
:10028000E70203194929E61F4A290308013A8300B6
:100290004A29031003184E29031D5529C91249087C
:1002A00083168700831287165B29C91249088316B3
:1002B000870083128712AC0A2C08133C0319AC0187
:1002C0000B118A110A122B280C10451DA0124C325A
:1002D000202A3A10252664100A000D104539F237FD
:1002E0003A10252664100A00543084008313000855
:1002F000031987290630F800F701F70B7D29F80B61
:100300007C297B30F700F70B8329800B7A290800C2
:100310005B188C2908128D2908168316081283127F
:10032000DB1894298812952988168316881283125F
:100330005B199C2908139D2908178316081383123B
:10034000DB19A4298813A529881783168813891017
:10035000831289148316891083128910080083166A
:10036000091183120911D808031DB8290911B929E7
:10037000091583160911A630F700F70BBD290000F7
:10038000891083128910590EDA000F30DA055A08E5
:10039000DB00882159080F39DA00DB0088210800CA
:1003A0008316081283120812831688128312881289
:1003B0008316081383120813831688138312881375
:1003C000831609118312091183168910831289106B
:1003D0000F30D40074210130CA004A08033C031CCA
:1003E000F9290330DB0088210530D4007421CA0AC2
:1003F000ED290230DB008821CA014A08033C031CB6
:100400000A2A4A084F20CB00D8014B08D900AF2157
:10041000CA0AFD298A110A12A72D4A0DF700F70D05
:10042000F70DF830F7051F08C73977049F00103023
:10043000F700F70B192A00001F151F191D2A1E08A7
:10044000FA0083161E08F8007A08F90083120800E3
:100450008E30F7004B08F8004A08F900FA01CB1F6C
:10046000362AF809F909F90A0319F80AF808031DE8
:10047000432A7908F800F9010830F702F808031D4B
:10048000432AF7014C2A0310F81B4A2AF90DF80DEC
:10049000F703432ACB1FF813080080308318D306D4
:1004A000D801D9014F08D7005308D7064E080319C1
:1004B0003D2BD600F70052080319462BD60203192C
:1004C000E22A031CA02A5308DC00DC175408DB00D6
:1004D0005508DA00D9010310DC0CDB0CDA0CD90C5E
:1004E000D60B6A2AD71F772A58145A2B5810561041
:1004F00058165130840083136F2B5812D71B8A2A49
:10050000561C952ADC0CDB0CDA0CD90CF70A031903
:10051000552B952ADC1B982A0310D90DDA0DDB0D1B
:10052000DC0DF7030319552B8A2A5817022B581391
:100530004F08D700D71F9E2ADC174E2BDC134E2BFB
:100540005208D600F7004E08D6024F08DC00DC1730
:100550005008DB005108DA00D9010310DC0CDB0C79
:10056000DA0CD90CD60BAC2AD71FB92AD8145A2BBF
:10057000D8105610D8165530840083136F2BD8121C
:10058000D71BCC2A561CD72ADC0CDB0CDA0CD90C76
:10059000F70A0319552BD72ADC1BDA2A0310D90DC9
:1005A000DA0DDB0DDC0DF7030319552BCC2AD81718
:1005B000022BD8135308D700D71FE02ADC174E2B85
:1005C000DC134E2B5308DC00DC175408DB00550805
:1005D000DA00D71FEF2ADC1358155A2B5811D9010E
:1005E00056105130840083136F2BD71B182B4F08E4
:1005F000D700561C022BDC0CDB0CDA0CD90CF70AEA
:100600000319552BD91F132BDA0A031D132BDB0AF1
:10061000031D132BDC0A031D132BDC0CDB0CDA0C83
:10062000F70A0319552B581B972AD81BD92A372BA1
:100630008030DC06DC1F202B5A2B5308D7002D2BD3
:100640004F08D700DC08031D2D2BDB08031D2D2BC5
:10065000DA08031D2D2BF7014E2BDC1B372B031063
:10066000D90DDA0DDB0DDC0DF70B2D2B552BD71F1C
:100670003B2BDC174E2BDC134E2B5208F700530894
:10068000DC005408DB005508DA004E2B4E08F7005A
:100690004F08DC005008DB005108DA005C08F80065
:1006A0005B08F9005A08FA008D2BF701F801F901EF
:1006B000FA018D2BD901DA09DB09DC09D909D90A3C
:1006C000031D682BDA0A031D682BDB0A0319DC0AF9
:1006D0005818762AD818B82A5819EE2A1D2B00085F
:1006E000DA07031C792BDB0A031D792BDC0A0319BB
:1006F000561484030008DB07031C812BDC0A031952
:10070000561484030008801F803ADC07031856142F
:10071000581A7D2AD81ABF2AF52A8A110A122F2EB2
:100720008E30F7004A08F7024B08F9004C08F80031
:10073000F917F7080319A72B0310F908031DA32BBA
:10074000F8080319A72BF90CF80CF70B9C2BCB1FFF
:10075000AE2BF809F909F80A0319F90A8A110A12E5
:10076000382E4D084F068039D100CD1FBC2BCC0947
:10077000CD09CC0A0319CD0ACF1FC32BCE09CF094F
:10078000CE0A0319CF0A1030D000F701FA01CD0CC0
:10079000CC0C031CD12B4E08F7070318FA0A4F089C
:1007A000FA07FA0CF70CF90CF80CD00BC72BD11F79
:1007B000DE2BF809F909F80A0319F90A08005308A9
:1007C0000C3A0319ED2B063A0319F52B073A0319D6
:1007D000F52B053A03190B2C102CD8010130D90048
:1007E000AF210230D4007421152C0130D400023026
:1007F000D500550BFC2BFF2B4030D600002CD6012A
:1008000001305402D60756088038D700D80157085F
:10081000D900AF21152CD8011030D900AF21152CEB
:100820000130D8005308D900AF2108000B08CB00D5
:100830008B13831603178C170C140000000083120F
:100840000313CB1B8B1703184D2C03170C087F3990
:100850000313CB0003170D080313CC0003170F0875
:100860000313CD004B08D300DF234C0803178D0082
:1008700003134D0803178F0003130B08CE008B13CF
:10088000831603178C170C14000000008312031347
:10089000CE1B8B17CA0B4D2C6C2C03170C0D0E0D99
:1008A0007F390313CB0003170D080313CC00031784
:1008B0000F080313CD004B08D300DF234C080317A8
:1008C0008D0003134D0803178F008D0A03198F0A3B
:1008D00003100313CA0B162C0800D2010408D10020
:1008E0005210831B5214CB1F7D2CD117511ED10ADD
:1008F000CA09CB09CA0A0319CB0A4B0EF038CD003E
:10090000CD07E23ECE00323ED0004B080F39CE0775
:10091000CE07D007E93ECF00CF07CF074A0E0F39E9
:10092000CF07D007CF0DD00DD009D00D4A080F3911
:10093000D007CD0D0730CC000A30D007CF03031C01
:100940009D2CCF07CE03031CA12CCE07CD03031C87
:10095000A52CCD07CC03031CA92C4C308400831399
:1009600007305105511384035105031DBE2C511A44
:10097000840A511ABE2C2030F700DB2C840750303B
:100980000402031951170008F700031DCF2C511B57
:10099000CF2C511AE92CD119CF2C2030DA2CD11FB1
:1009A000D72C2D30F70084035113D113DB2CD11534
:1009B00051123030F707CB010408CA004B10831BDB
:1009C0004B147708D300DF234A08840083134B18A5
:1009D0008317840A511FBF2C0800D2010408D100DC
:1009E0005210831B5214CB1FFD2CD117511ED10A5C
:1009F000CA09CB09CA0A0319CB0A4B0EF038CD003D
:100A0000CD07E23ECE00323ED0004B080F39CE0774
:100A1000CE07D007E93ECF00CF07CF074A0E0F39E8
:100A2000CF07D007CF0DD00DD009D00D4A080F3910
:100A3000D007CD0D0730CC000A30D007CF03031C00
:100A40001D2DCF07CE03031C212DCE07CD03031C84
:100A5000252DCD07CC03031C292D4C308400831396
:100A600007305105511384035105031D3E2D511AC2
:100A7000840A511A3E2D2030F7005B2D8407503038
:100A80000402031951170008F700031D4F2D511BD5
:100A90004F2D511A5F2DD1194F2D20305A2DD11FB6
:100AA000572D2D30F70084035113D1135B2DD11531
:100AB00051123030F70777080C1E5C2D9900840A1C
:100AC000511F3F2D080003081F3983008130831612
:100AD0009900A6309800903083129800AC01AE01C6
:100AE000AD01B001AF01B201B101B401B301B60172
:100AF000B501B801B701BA01B901BC01BB01BE0122
:100B00000130BD00C001BF00C201C100C401C3016A
:100B1000C801C701C601C501FF30C90083161F14F3
:100B20009F141F159F1107309C0083131F109F14E3
:100B30001F119F110030F80083121F08C739780475
:100B40009F001030F700F70BA32D0000D0290A30CA
:100B5000D400742183161F1783121F179F13831647
:100B60009F1783121F1483160108C73908388100A4
:100B70000030F800063883129200FF30831692008E
:100B800083124911490883168700831207110C301C
:100B900097007F3095001708CF39203897008B16C3
:100BA000C0308B040230CA000D227908CB0003103C
:100BB000790CFA00780CF900AD007A08AE00CA0191
:100BC0000D227908B0007808AF000130CA000D226C
:100BD0007908CB007808CA00CB0CCA0CCB0CCA0C25
:100BE000CB0C4A089500CB0C4B0C3039F70017089A
:100BF000CF39770497003008CB002F08CA0028228D
:100C0000AB018B1BAB178B137A08E1007908E0006E
:100C10007808DF007708DE00A630E5009B30E400AE
:100C20004430E3007A30E2005720AB1B8B177A0880
:100C3000CD007908CC007808CB007708CA00831073
:100C40007A08D1007908D0007808CF007708CE0064
:100C5000D501D4016030D3008330D2004D2A7A0808
:100C6000CD007908CC007808CB007708CA00902B1B
:100C70007908B0007808AF00C4010130C3002D0826
:100C80002F02B5003008B6002E08031C2E0FB60246
:100C90003608CD003508CC003E08CF003D08CE0018
:100CA000B1237908B8007808B7003608CD003508B8
:100CB000CC004008CF003F08CE00B1237908CB001C
:100CC0007808CA007908CD007808CC004408CF0025
:100CD0004308CE00B1237808B90779080318790FC3
:100CE000BA072D083102CA003208CB002E08031CB7
:100CF0002E0FCB024B08CD004A08CC004208CF0093
:100D00004108CE00B1237908CB007808CA007908E1
:100D1000CD007808CC004408CF004308CE00B123B2
:100D20007908BC007808BB002E08B2002D08B1007D
:100D300039083707CA003808CB003A0803183A0FB9
:100D4000CB073B084A07B3004B08B4003C08031824
:100D50003C0FB4073408CB003308CA0028227A08B5
:100D6000C8007908C7007808C6007708C500643055
:100D700003178D0001308F00031005300313CA00E4
:100D80001624103084003008CB002F08CA006D24D0
:100D9000683003178D0001308F00031004300313F7
:100DA000CA001624103084002E08CB002D08CA007B
:100DB0006D242030D300DF230A30D300DF236D30D1
:100DC00003178D0001308F00031008300313CA0091
:100DD0001624103084003608CB003508CA006D2474
:100DE0002030D300DF230A30D300DF23103084000B
:100DF0003008CB002F08CA00ED2420300C1EFE2E38
:100E00009900103084002E08CB002D08CA00ED2474
:100E100020300C1E092F9900103084003608CB00BA
:100E20003508CA00ED2420300C1E142F9900103014
:100E300084003408CB003308CA00ED240A300C1EAD
:0E0E40001F2F99000A30D4007421D22D6300B8
:02400E00323F3F
:00000001FF
;PIC16F877A
;CRC=EA51  CREATED="06-abr-21 10:51"
