:1000000005308A00002D0000FF00030E8301A100CF
:100010000A08A0008A010408A2007708A300780853
:10002000A4007908A5007A08A60003170D08031399
:10003000A70003170F080313A80003170C080313E6
:10004000A90003170E080313AA00831383128B1E43
:100050002B280B194C28220884002308F7002408B9
:10006000F8002508F9002608FA00270803178D0074
:100070000313280803178F000313290803178C00A4
:1000800003132A0803178E00031320088A00210E89
:100090008300FF0E7F0E09008A110A12F1280A1050
:1000A0008A100A11820728340F34013406348E3046
:1000B000F7005B08F8005A08F900FA01DB1F652811
:1000C000F809F909F90A0319F80AF808031D722852
:1000D0007908F800F9010830F702F808031D7228C2
:1000E000F7017B280310F81B7928F90DF80DF703A9
:1000F0007228DB1FF81308005A080319EC28E200E5
:100100005E080319EC28E20703188D287F30E2020D
:10011000031CEC280319EC2891288130E20703180E
:10012000EC286208F700F801F901FA015B08E60023
:10013000E6175C08E5005D08E4001830E200E30122
:10014000641CBA286108FA07031CAC28F90A031DCD
:10015000AC28F80A0319E3176008F907031CB32851
:10016000F80A0319E3175F08DC00DC175C08F807DE
:100170000318E317E30DF80CF90CFA0CE60CE50C88
:10018000E40C0310E20B9F280130F7070318EC285A
:10019000F81BD128E60DFA0DF90DF80DF703031938
:1001A000EC28E61FE228FA0A031DE228F90A031DDB
:1001B000E228F80A031DE228F80CF90CFA0CF70AF9
:1001C0000319EC285B08E3005F08E306E31FEA2855
:1001D000F817F028F813F028F701F801F901FA01EF
:1001E00008002E08DB002D08DA0057207A08DD0011
:1001F0007908DC007808DB007708DA00BC30E10021
:100200007430E0001330DF007930DE007C20AE1B5C
:100210001729AE08031D10292C082D02031C1729CD
:10022000C512450883168700831287161D29C5123B
:1002300045088316870083128712AC0A2C08133CEA
:100240000319AC010B118A110A122B280C10451D41
:10025000A0124C32202A3A10252664100A000D10F4
:100260004539F2373A10252664100A0050308400D0
:1002700083130008031949290630F800F701F70B2A
:100280003F29F80B3E297B30F700F70B4529800BFF
:100290003C29080057184E2908124F2908168316C2
:1002A00008128312D71856298812572988168316E0
:1002B0008812831257195E2908135F2908178316BD
:1002C00008138312D719662988136729881783169C
:1002D0008813891083128914831689108312891058
:1002E00008008316091183120911D408031D7A2905
:1002F00009117B29091583160911A630F700F70BA0
:100300007F290000891083128910550ED6000F3006
:10031000D6055608D7004A2155080F39D600D70010
:100320004A210800831608128312081283168812C5
:1003300083128812831608138312081383168813F6
:1003400083128813831609118312091183168910E9
:10035000831289100F30D00036210130C6004608C4
:10036000033C031CBB290330D7004A210530D000D1
:100370003621C60AAF290230D7004A21C6014608F5
:10038000033C031CCC2946084F20C700D401470872
:10039000D5007121C60ABF298A110A12402D460DC7
:1003A000F700F70DF70DF830F7051F08C739770488
:1003B0009F001030F700F70BDB2900001F151F19F5
:1003C000DF291E08FA0083161E08F8007A08F900D3
:1003D0008312080080308318CF06D401D5014B0862
:1003E000D3004F08D3064A080319DA2AD200F700CF
:1003F0004E080319E32AD20203197F2A031C3D2A5F
:100400004F08D800D8175008D7005108D600D5019A
:100410000310D80CD70CD60CD50CD20B072AD31F3F
:10042000142A5414F72A5410521054164D308400D4
:1004300083130C2B5412D31B272A521C322AD80C9C
:10044000D70CD60CD50CF70A0319F22A322AD81B7E
:10045000352A0310D50DD60DD70DD80DF703031986
:10046000F22A272A54179F2A54134B08D300D31F6C
:100470003B2AD817EB2AD813EB2A4E08D200F700F4
:100480004A08D2024B08D800D8174C08D7004D08AC
:10049000D600D5010310D80CD70CD60CD50CD20B36
:1004A000492AD31F562AD414F72AD4105210D4162E
:1004B0005130840083130C2BD412D31B692A521C95
:1004C000742AD80CD70CD60CD50CF70A0319F22ACB
:1004D000742AD81B772A0310D50DD60DD70DD80D49
:1004E000F7030319F22A692AD4179F2AD4134F0855
:1004F000D300D31F7D2AD817EB2AD813EB2A4F0835
:10050000D800D8175008D7005108D600D31F8C2A1E
:10051000D8135415F72A5411D50152104D308400C8
:1005200083130C2BD31BB52A4B08D300521C9F2AD4
:10053000D80CD70CD60CD50CF70A0319F22AD51F04
:10054000B02AD60A031DB02AD70A031DB02AD80A3A
:10055000031DB02AD80CD70CD60CF70A0319F22ABF
:10056000541B342AD41B762AD42A8030D806D81FAC
:10057000BD2AF72A4F08D300CA2A4B08D300D8084F
:10058000031DCA2AD708031DCA2AD608031DCA2A72
:10059000F701EB2AD81BD42A0310D50DD60DD70DA1
:1005A000D80DF70BCA2AF22AD31FD82AD817EB2A5C
:1005B000D813EB2A4E08F7004F08D8005008D70090
:1005C0005108D600EB2A4A08F7004B08D8004C081F
:1005D000D7004D08D6005808F8005708F90056080B
:1005E000FA002A2BF701F801F901FA012A2BD501AB
:1005F000D609D709D809D509D50A031D052BD60A6E
:10060000031D052BD70A0319D80A5418132AD41826
:10061000552A54198B2ABA2A0008D607031C162B10
:10062000D70A031D162BD80A031952148403000895
:10063000D707031C1E2BD80A031952148403000881
:10064000801F803AD80703185214541A1A2AD41A51
:100650005C2A922A8A110A12CE2D8E30F7004608A3
:10066000F7024708F9004808F800F917F7080319D6
:10067000442B0310F908031D402BF8080319442BE1
:10068000F90CF80CF70B392BC71F4B2BF809F9099C
:10069000F80A0319F90A8A110A12D72D49084B06DC
:1006A0008039CD00C91F592BC809C909C80A0319C7
:1006B000C90ACB1F602BCA09CB09CA0A0319CB0A86
:1006C0001030CC00F701FA01C90CC80C031C6E2BCA
:1006D0004A08F7070318FA0A4B08FA07FA0CF70C4E
:1006E000F90CF80CCC0B642BCD1F7B2BF809F90906
:1006F000F80A0319F90A08004F080C3A03198A2B63
:10070000063A0319922B073A0319922B053A03195B
:10071000A82BAD2BD4010130D50071210230D000BF
:100720003621B22B0130D0000230D100510B992B71
:100730009C2B4030D2009D2BD20101305002D207B9
:1007400052088038D300D4015308D5007121B22B50
:10075000D4011030D5007121B22B0130D4004F08E4
:10076000D500712108000B08C7008B1383160317EF
:100770008C170C140000000083120313C71B8B1787
:100780000318EA2B03170C087F390313C70003175C
:100790000D080313C80003170F080313C900470807
:1007A000CF007C23480803178D0003134908031763
:1007B0008F0003130B08CA008B13831603178C17C3
:1007C0000C140000000083120313CA1B8B17C60B06
:1007D000EA2B092C03170C0D0E0D7F390313C700EC
:1007E00003170D080313C80003170F080313C900EC
:1007F0004708CF007C23480803178D0003134908DE
:1008000003178F008D0A03198F0A03100313C60BF9
:10081000B32B0800CE010408CD004E10831B4E14EC
:10082000C71F1A2CCD174D1ECD0AC609C709C60A07
:100830000319C70A470EF038C900C907E23ECA00CB
:10084000323ECC0047080F39CA07CA07CC07E93E39
:10085000CB00CB07CB07460E0F39CB07CC07CB0D10
:10086000CC0DCC09CC0D46080F39CC07C90D07308B
:10087000C8000A30CC07CB03031C3A2CCB07CA03B1
:10088000031C3E2CCA07C903031C422CC907C8031A
:10089000031C462C48308400831307304D054D134C
:1008A00084034D05031D5B2C4D1A840A4D1A5B2CE5
:1008B0002030F700782C84074C30040203194D17C0
:1008C0000008F700031D6C2C4D1B6C2C4D1A862C58
:1008D000CD196C2C2030772CCD1F742C2D30F700C7
:1008E00084034D13CD13782CCD154D123030F707FE
:1008F000C7010408C6004710831B47147708CF00C0
:100900007C2346088400831347188317840A4D1FED
:100910005C2C0800CE010408CD004E10831B4E1441
:10092000C71F9A2CCD174D1ECD0AC609C709C60A86
:100930000319C70A470EF038C900C907E23ECA00CA
:10094000323ECC0047080F39CA07CA07CC07E93E38
:10095000CB00CB07CB07460E0F39CB07CC07CB0D0F
:10096000CC0DCC09CC0D46080F39CC07C90D07308A
:10097000C8000A30CC07CB03031CBA2CCB07CA0330
:10098000031CBE2CCA07C903031CC22CC907C80319
:10099000031CC62C48308400831307304D054D13CB
:1009A00084034D05031DDB2C4D1A840A4D1ADB2CE4
:1009B0002030F700F82C84074C30040203194D173F
:1009C0000008F700031DEC2C4D1BEC2C4D1AFC2CE1
:1009D000CD19EC2C2030F72CCD1FF42C2D30F70046
:1009E00084034D13CD13F82CCD154D123030F7077D
:1009F00077080C1EF92C9900840A4D1FDC2C080086
:100A000003081F398300813083169900A6309800AF
:100A1000903083129800AC01AE01AD01B001AF017E
:100A2000B201B101B401B301B601B501B801B7011A
:100A3000BA01B901BC01BB01BE01BD01C001013059
:100A4000BF00C201C100C401C300FF30C50083164E
:100A50001F149F141F159F1107309C0083131F1034
:100A60009F141F119F110030F80083121F08C7390F
:100A700078049F001030F700F70B3C2D00009229FE
:100A80000A30D000362183161F1783121F179F13B9
:100A900083169F1783121F1483160108C73908385D
:100AA00081000030F800063883129200FF30831670
:100AB000920083124511450883168700831207119F
:100AC0000C3097007F3095001708CF3920389700F9
:100AD0008B16C0308B040230C600CF217908C700C6
:100AE0000310790CFA00780CF900AF007A08B00016
:100AF000C601CF217908B2007808B1000130C600E4
:100B0000CF217908C7007808C600C70CC60CC70CEF
:100B1000C60CC70C46089500C70C470C3039F700C7
:100B20001708CF3977049700AB018B1BAB178B13DA
:100B30003208DB003108DA005720AB1B8B17AB0102
:100B40008B1BAB178B137A08DD007908DC00780863
:100B5000DB007708DA00A630E1009B30E00044308B
:100B6000DF007A30DE007C20AB1B8B177A08C900CF
:100B70007908C8007808C7007708C60083107A088B
:100B8000CD007908CC007808CB007708CA00D101E5
:100B9000D0016030CF008330CE00EA297A08C90046
:100BA0007908C8007808C7007708C6002D2B790897
:100BB000B2007808B1002F083102B7003208B8003F
:100BC0003008031C300FB8023808C9003708C800C5
:100BD0004008CB003F08CA004E237908BA007808C5
:100BE000B9003808C9003708C8004208CB004108DE
:100BF000CA004E237808BB0779080318790FBC0791
:100C00002F083302C6003408C7003008031C300F19
:100C1000C7024708C9004608C8004408CB0043087B
:100C2000CA004E237908BE007808BD003008B40021
:100C30002F08B3003B083907C6003A08C7003C0834
:100C400003183C0FC7073D084607B5004708B60024
:100C50003E0803183E0FB6073608AE003508AD0053
:100C6000263003178D0001308F0003100530031369
:100C7000C600B323103084003208C7003108C60014
:100C80000A242A3003178D0001308F00031004302E
:100C90000313C600B323103084003008C7002F08A8
:100CA000C6000A242030CF007C230A30CF007C23EA
:100CB0002F3003178D0001308F000310083003130D
:100CC000C600B323103084003808C7003708C600B8
:100CD0000A242030CF007C230A30CF007C23103040
:100CE00084003208C7003108C6008A2420300C1E58
:100CF000772E9900103084003008C7002F08C600F6
:100D00008A2420300C1E822E99001030840038086E
:100D1000C7003708C6008A240A300C1E8D2E9900A1
:0A0D20000A30D00036216B2D63006D
:02400E00323F3F
:00000001FF
;PIC16F877A
;CRC=2220  CREATED="04-abr-21 19:52"
